:060000000A128A110E280D
:10000800FE00030E83120313A6000A08A7000A12B3
:100018008A11DE2B0A128A11112883120313C101D7
:10002800C201C301C401C501C601C701C801C90194
:10003800CA01CB01CC0183010A128A11242C831234
:1000480003130C13831603130C170B17A528013081
:100058008316031788000130831603138500C33005
:10006800831203139F05C6280230831603178800DE
:100078000230831603138500831203131F08C33944
:1000880004389F00C62804308316031788000430FC
:10009800831603138500831203131F08C339083816
:1000A8009F00C62808308316031788000830831677
:1000B80003138500831203131F08C3390C389F00EC
:1000C800C6281030831603178800203083160313C0
:1000D8008500831203131F08C33910389F00C628F0
:1000E8002030831603178800013083160313890014
:1000F800831203131F08C33914389F00C6284030E1
:1001080083160317880002308316031389008312AD
:1001180003131F08C33918389F00C6288030831678
:10012800031788000430831603138900831203130E
:100138001F08C3391C389F00C62883160317880177
:10014800C628831203132908003A0319AC28A128EA
:100158002808003A03192B28013A03193828033ACA
:1001680003194728013A03195628073A031965283D
:10017800013A03197428033A03198328013A031929
:100188009228A128831203131F083F3980389F0043
:10019800831603139F131F129F12831203131F1436
:1001A8000C130D3083120313AB00FB30AA00AA0B0B
:1001B800DB28AB0BDB280800831203130908031D97
:1001C800E628E728EE28013089004608C2004508DD
:1001D800C10008290903031DF228F328FA28023070
:1001E80089004808C2004708C100082902300906EA
:1001F800031DFF2800290729043089004A08C20086
:100208004908C1000829890141084204031D0D2934
:100218000E2913293F30C1000030C2007D29410357
:100228004204031D182919291E290630C10000306F
:10023800C2007D29023041064204031D24292529D4
:100248002A295B30C1000030C2007D2903304106F5
:100258004204031D3029312936294F30C1000030AE
:10026800C2007D29043041064204031D3C293D2972
:1002780042296630C1000030C2007D2905304106A0
:100288004204031D482949294E296D30C100003018
:10029800C2007D29063041064204031D5429552910
:1002A8005A297D30C1000030C2007D29073041063F
:1002B8004204031D6029612966290730C100003006
:1002C800C2007D29083041064204031D6C296D29AE
:1002D80072297F30C1000030C2007D2909304106F3
:1002E8004204031D782979290E296F30C100003096
:1002F800C20041088700080083120313A800831670
:1003080003138113831203132808031D8C298D29D5
:10031800932983160313061415141614E6292803C3
:10032800031D972998299E2983160313861495146B
:100338009614E62902302806031DA329A429AA2910
:1003480083160313061515151615E6290330280616
:10035800031DAF29B029B6298316031386159515F1
:100368009615E62904302806031DBB29BC29C22995
:1003780083160313061615161616E62905302806E1
:10038800031DC729C829CE29831603138616951677
:100398009616E62906302806031DD329D429DA291A
:1003A80083160313061715171617E62907302806AC
:1003B800031DDF29E029E6298316031386179517FD
:1003C8009617E6298B19E929EA29EC290B108B15D0
:1003D800080083120313AE01A91FF329F429FB298E
:1003E800A809A909A80A0319A90AAE01AE0AAB1FF0
:1003F800FE29FF29082AAA09AB09AA0A0319AB0A88
:100408000130AC002C08AE06AF01B0012808290461
:1004180003190F2A102A472AAD01AD0A1E2A0130F6
:100428000310A80DA90DFF3E031D142A0130AC00CE
:100438002C08AD07A91F212A222A132A01300310EC
:10044800AF0DB00DFF3E031D232A29082B02031D03
:100458002F2A28082A02031C322A332A3A2A280873
:10046800AA022908031CAB03AB022F1401300310A6
:10047800A90CA80CFF3E031D3B2A0130AD02031D49
:10048800462A472A222A2E0803194B2A4C2A512A7F
:10049800AF09B009AF0A0319B00A3008A9002F083C
:1004A800A80008006430F0000030F1008312031344
:1004B8002308F3002208F2000A128A11BF220A1246
:1004C8008A11710883120313C4007008C3000A302C
:1004D800F9000030FA006430F0000030F100230821
:1004E800F3002208F2000A128A11BF220A128A11A6
:1004F8007108FC007008FB000A128A1183230A1293
:100508008A117A0883120313C6007908C5000A30D5
:10051800F9000030FA000A30F0000030F10023083A
:10052800F3002208F2000A128A11BF220A128A1165
:100538007108FC007008FB000A128A1183230A1252
:100548008A117A0883120313C8007908C7000A3091
:10055800F9000030FA002308FC002208FB000A1208
:100568008A1183230A128A117A0883120313CA0094
:100578007908C9000800F601F11FC32AC42ACB2A4A
:10058800F009F109F00A0319F10AF601F60AF31F56
:10059800CE2ACF2AD82AF209F309F20A0319F30A54
:1005A8000130F4007408F606F701F80170087104C8
:1005B8000319DF2AE02A172BF501F50AEE2A013084
:1005C8000310F00DF10DFF3E031DE42A0130F40085
:1005D8007408F507F11FF12AF22AE32A0130031003
:1005E800F70DF80DFF3E031DF32A71087302031D72
:1005F800FF2A70087202031C022B032B0A2B7008B7
:10060800F2027108031CF303F3027714013003109C
:10061800F10CF00CFF3E031D0B2B0130F502031DFE
:10062800162B172BF22A760803191B2B1C2B212BB0
:10063800F709F809F70A0319F80A7808F1007708A2
:10064800F0000800E83083120313A8000330A90063
:100658003808AB003708AA000A128A11ED210A12DD
:100668008A11831203132908B2002808B100003048
:10067800B3000930B4000A128A1161240A128A11DF
:10068800831203133208C0003108BF003A08BC00C7
:100698003908BB000310BB0DBC0D0310BB0DBC0D0E
:1006A8003B08A8003C08A9004008AB003F08AA0086
:1006B8000A128A11ED210A128A11003083120313DB
:1006C800BD000130BE0028083D02CB002908031CEC
:1006D800290A3E02CC000B118B16831603138112D4
:1006E80081110108831203133906F8393906831674
:1006F80003138100831203134B088100080083123F
:100708000313A101FC1F892B8A2B912BFB09FC09E0
:10071800FB0A0319FC0AA101A10AFA1F942B952BC5
:100728009A2BF909FA09F90A0319FA0A79087A04D5
:1007380003199F2BA02BCF2BA001A00AAE2B0130B1
:100748000310F90DFA0DFF3E031DA42B0130FD0027
:100758007D08A007FA1FB12BB22BA32B7A087C02C5
:10076800031DB82B79087B02031CBB2BBC2BC22BA7
:100778007908FB027A08031CFC03FC020130031011
:10078800FA0CF90CFF3E031DC32B0130A002031D18
:10079800CE2BCF2BB22B21080319D32BD42BD92B3B
:1007A800FB09FC09FB0A0319FC0A7C08FA007B0810
:1007B800F90008000B1DE12BE22BED2B0A128A1120
:1007C800E0200A128A110A128A11C0240A128A1118
:1007D8000B11831203130C1FF22BF32B022C1E0890
:1007E800A400A5012408A2002508A3000A128A1162
:1007F80056220A128A11831203130C130B1C052CA0
:10080800062C1D2C0618092C0A2C122C0130A400C9
:1008180024088807061C112C122C0E2C8618152C5F
:10082800162C1C2C01308802861C1B2C1C2C182C06
:100838000B1027088A00260E8300FE0E7E0E090084
:100848000A128A1188240A128A11013083120313AA
:10085800A8000030A9000A128A1123200A128A115E
:100868000A3083120313B7000030B8000030B90013
:100878000130BA000A128A1126230A128A110A12B2
:100888008A11AD240A128A118312031308081E0262
:10089800031C4F2C502C572C8316031385138312DB
:1008A80003138517432C831603138513831203132D
:1008B8008513432C0A128A110E2883120313B501DB
:1008C800B601311C682C692C6F2C3308B507031846
:1008D800B60A3408B60701300310B30DB40DFF3E55
:1008E800031D702C01300310B20CB10CFF3E031D28
:1008F800772C31083204031D822C832C652C360892
:10090800B2003508B1000800831603178901880171
:1009180083160313850186018701880189018312E3
:1009280003138501860187018801890100300A12B5
:100938008A1180210A128A1101300A128A11802133
:100948000A128A117030831603138F040F148B1741
:100958000800831203139F18B22CB32CBF2C9F14CA
:10096800063083120313A9002F30A800A80BBA2C55
:10097800A90BBA2CBF2C0800831203134B08810063
:02098800080065
:08400000FF3FFF3FFF3FFF3FC0
:04400E00D420FF3F7C
:00000001FF
